{
  "contractName": "ChequeMetadata",
  "abi": [
    {
      "inputs": [],
      "stateMutability": "nonpayable",
      "type": "constructor"
    },
    {
      "anonymous": false,
      "inputs": [
        {
          "indexed": false,
          "internalType": "uint256",
          "name": "id",
          "type": "uint256"
        },
        {
          "indexed": false,
          "internalType": "string",
          "name": "chequeImageUrl",
          "type": "string"
        }
      ],
      "name": "ChequeStored",
      "type": "event"
    },
    {
      "inputs": [
        {
          "internalType": "uint256",
          "name": "",
          "type": "uint256"
        }
      ],
      "name": "cheques",
      "outputs": [
        {
          "internalType": "uint256",
          "name": "id",
          "type": "uint256"
        },
        {
          "internalType": "string",
          "name": "payeeName",
          "type": "string"
        },
        {
          "internalType": "string",
          "name": "amountInNumber",
          "type": "string"
        },
        {
          "internalType": "string",
          "name": "amountInWords",
          "type": "string"
        },
        {
          "internalType": "string",
          "name": "bankName",
          "type": "string"
        },
        {
          "internalType": "string",
          "name": "branch",
          "type": "string"
        },
        {
          "internalType": "string",
          "name": "ifscCode",
          "type": "string"
        },
        {
          "internalType": "string",
          "name": "date",
          "type": "string"
        },
        {
          "internalType": "string",
          "name": "micrCode",
          "type": "string"
        },
        {
          "internalType": "string",
          "name": "accountNumber",
          "type": "string"
        },
        {
          "internalType": "string",
          "name": "chequeImageUrl",
          "type": "string"
        }
      ],
      "stateMutability": "view",
      "type": "function",
      "constant": true
    },
    {
      "inputs": [],
      "name": "owner",
      "outputs": [
        {
          "internalType": "address",
          "name": "",
          "type": "address"
        }
      ],
      "stateMutability": "view",
      "type": "function",
      "constant": true
    },
    {
      "inputs": [
        {
          "internalType": "uint256",
          "name": "id",
          "type": "uint256"
        },
        {
          "internalType": "string",
          "name": "payeeName",
          "type": "string"
        },
        {
          "internalType": "string",
          "name": "amountInNumber",
          "type": "string"
        },
        {
          "internalType": "string",
          "name": "amountInWords",
          "type": "string"
        },
        {
          "internalType": "string",
          "name": "bankName",
          "type": "string"
        },
        {
          "internalType": "string",
          "name": "branch",
          "type": "string"
        },
        {
          "internalType": "string",
          "name": "ifscCode",
          "type": "string"
        },
        {
          "internalType": "string",
          "name": "date",
          "type": "string"
        },
        {
          "internalType": "string",
          "name": "micrCode",
          "type": "string"
        },
        {
          "internalType": "string",
          "name": "accountNumber",
          "type": "string"
        },
        {
          "internalType": "string",
          "name": "chequeImageUrl",
          "type": "string"
        }
      ],
      "name": "storeCheque",
      "outputs": [],
      "stateMutability": "nonpayable",
      "type": "function"
    },
    {
      "inputs": [
        {
          "internalType": "uint256",
          "name": "id",
          "type": "uint256"
        }
      ],
      "name": "getCheque",
      "outputs": [
        {
          "internalType": "uint256",
          "name": "",
          "type": "uint256"
        },
        {
          "internalType": "string",
          "name": "",
          "type": "string"
        },
        {
          "internalType": "string",
          "name": "",
          "type": "string"
        }
      ],
      "stateMutability": "view",
      "type": "function",
      "constant": true
    },
    {
      "inputs": [],
      "name": "getChequeIds",
      "outputs": [
        {
          "internalType": "uint256[]",
          "name": "",
          "type": "uint256[]"
        }
      ],
      "stateMutability": "view",
      "type": "function",
      "constant": true
    },
    {
      "inputs": [],
      "name": "getAllCheques",
      "outputs": [
        {
          "internalType": "uint256[]",
          "name": "",
          "type": "uint256[]"
        },
        {
          "internalType": "string[]",
          "name": "",
          "type": "string[]"
        },
        {
          "internalType": "string[]",
          "name": "",
          "type": "string[]"
        }
      ],
      "stateMutability": "view",
      "type": "function",
      "constant": true
    }
  ],
  "bytecode": "0x608060405234801561001057600080fd5b5033600260006101000a81548173ffffffffffffffffffffffffffffffffffffffff021916908373ffffffffffffffffffffffffffffffffffffffff160217905550611b62806100616000396000f3fe608060405234801561001057600080fd5b50600436106100625760003560e01c8063346437571461006757806351208fe41461008557806356fafe22146100bf5780638da5cb5b146100db578063a6ce683c146100f9578063a7c302411461012b575b600080fd5b61006f61014b565b60405161007c9190610efb565b60405180910390f35b61009f600480360381019061009a9190610f5d565b6101a3565b6040516100b69b9a99989796959493929190611029565b60405180910390f35b6100d960048036038101906100d4919061124f565b61074d565b005b6100e361095e565b6040516100f0919061149c565b60405180910390f35b610113600480360381019061010e9190610f5d565b610984565b604051610122939291906114b7565b60405180910390f35b610133610b46565b60405161014293929190611608565b60405180910390f35b6060600180548060200260200160405190810160405280929190818152602001828054801561019957602002820191906000526020600020905b815481526020019060010190808311610185575b5050505050905090565b60006020528060005260406000206000915090508060000154908060010180546101cc90611683565b80601f01602080910402602001604051908101604052809291908181526020018280546101f890611683565b80156102455780601f1061021a57610100808354040283529160200191610245565b820191906000526020600020905b81548152906001019060200180831161022857829003601f168201915b50505050509080600201805461025a90611683565b80601f016020809104026020016040519081016040528092919081815260200182805461028690611683565b80156102d35780601f106102a8576101008083540402835291602001916102d3565b820191906000526020600020905b8154815290600101906020018083116102b657829003601f168201915b5050505050908060030180546102e890611683565b80601f016020809104026020016040519081016040528092919081815260200182805461031490611683565b80156103615780601f1061033657610100808354040283529160200191610361565b820191906000526020600020905b81548152906001019060200180831161034457829003601f168201915b50505050509080600401805461037690611683565b80601f01602080910402602001604051908101604052809291908181526020018280546103a290611683565b80156103ef5780601f106103c4576101008083540402835291602001916103ef565b820191906000526020600020905b8154815290600101906020018083116103d257829003601f168201915b50505050509080600501805461040490611683565b80601f016020809104026020016040519081016040528092919081815260200182805461043090611683565b801561047d5780601f106104525761010080835404028352916020019161047d565b820191906000526020600020905b81548152906001019060200180831161046057829003601f168201915b50505050509080600601805461049290611683565b80601f01602080910402602001604051908101604052809291908181526020018280546104be90611683565b801561050b5780601f106104e05761010080835404028352916020019161050b565b820191906000526020600020905b8154815290600101906020018083116104ee57829003601f168201915b50505050509080600701805461052090611683565b80601f016020809104026020016040519081016040528092919081815260200182805461054c90611683565b80156105995780601f1061056e57610100808354040283529160200191610599565b820191906000526020600020905b81548152906001019060200180831161057c57829003601f168201915b5050505050908060080180546105ae90611683565b80601f01602080910402602001604051908101604052809291908181526020018280546105da90611683565b80156106275780601f106105fc57610100808354040283529160200191610627565b820191906000526020600020905b81548152906001019060200180831161060a57829003601f168201915b50505050509080600901805461063c90611683565b80601f016020809104026020016040519081016040528092919081815260200182805461066890611683565b80156106b55780601f1061068a576101008083540402835291602001916106b5565b820191906000526020600020905b81548152906001019060200180831161069857829003601f168201915b50505050509080600a0180546106ca90611683565b80601f01602080910402602001604051908101604052809291908181526020018280546106f690611683565b80156107435780601f1061071857610100808354040283529160200191610743565b820191906000526020600020905b81548152906001019060200180831161072657829003601f168201915b505050505090508b565b60008060008d815260200190815260200160002060000154146107a5576040517f08c379a000000000000000000000000000000000000000000000000000000000815260040161079c90611726565b60405180910390fd5b6040518061016001604052808c81526020018b81526020018a8152602001898152602001888152602001878152602001868152602001858152602001848152602001838152602001828152506000808d815260200190815260200160002060008201518160000155602082015181600101908161082291906118f2565b50604082015181600201908161083891906118f2565b50606082015181600301908161084e91906118f2565b50608082015181600401908161086491906118f2565b5060a082015181600501908161087a91906118f2565b5060c082015181600601908161089091906118f2565b5060e08201518160070190816108a691906118f2565b506101008201518160080190816108bd91906118f2565b506101208201518160090190816108d491906118f2565b5061014082015181600a0190816108eb91906118f2565b5090505060018b90806001815401808255809150506001900390600052602060002001600090919091909150557f89b6f96501ffc9aa385f3b11ec89fa620634ec801416824e162ecd12536ac5488b826040516109499291906119c4565b60405180910390a15050505050505050505050565b600260009054906101000a900473ffffffffffffffffffffffffffffffffffffffff1681565b6000606080600080600086815260200190815260200160002060000154036109e1576040517f08c379a00000000000000000000000000000000000000000000000000000000081526004016109d890611a66565b60405180910390fd5b60008085815260200190815260200160002060000154600080868152602001908152602001600020600701600080878152602001908152602001600020600a01818054610a2d90611683565b80601f0160208091040260200160405190810160405280929190818152602001828054610a5990611683565b8015610aa65780601f10610a7b57610100808354040283529160200191610aa6565b820191906000526020600020905b815481529060010190602001808311610a8957829003601f168201915b50505050509150808054610ab990611683565b80601f0160208091040260200160405190810160405280929190818152602001828054610ae590611683565b8015610b325780601f10610b0757610100808354040283529160200191610b32565b820191906000526020600020905b815481529060010190602001808311610b1557829003601f168201915b505050505090509250925092509193909250565b60608060606000600180549050905060008167ffffffffffffffff811115610b7157610b70611124565b5b604051908082528060200260200182016040528015610b9f5781602001602082028036833780820191505090505b50905060008267ffffffffffffffff811115610bbe57610bbd611124565b5b604051908082528060200260200182016040528015610bf157816020015b6060815260200190600190039081610bdc5790505b50905060008367ffffffffffffffff811115610c1057610c0f611124565b5b604051908082528060200260200182016040528015610c4357816020015b6060815260200190600190039081610c2e5790505b50905060005b84811015610e2057600060018281548110610c6757610c66611a86565b5b9060005260206000200154905080858381518110610c8857610c87611a86565b5b6020026020010181815250506000808281526020019081526020016000206007018054610cb490611683565b80601f0160208091040260200160405190810160405280929190818152602001828054610ce090611683565b8015610d2d5780601f10610d0257610100808354040283529160200191610d2d565b820191906000526020600020905b815481529060010190602001808311610d1057829003601f168201915b5050505050848381518110610d4557610d44611a86565b5b6020026020010181905250600080828152602001908152602001600020600a018054610d7090611683565b80601f0160208091040260200160405190810160405280929190818152602001828054610d9c90611683565b8015610de95780601f10610dbe57610100808354040283529160200191610de9565b820191906000526020600020905b815481529060010190602001808311610dcc57829003601f168201915b5050505050838381518110610e0157610e00611a86565b5b6020026020010181905250508080610e1890611ae4565b915050610c49565b5082828296509650965050505050909192565b600081519050919050565b600082825260208201905092915050565b6000819050602082019050919050565b6000819050919050565b610e7281610e5f565b82525050565b6000610e848383610e69565b60208301905092915050565b6000602082019050919050565b6000610ea882610e33565b610eb28185610e3e565b9350610ebd83610e4f565b8060005b83811015610eee578151610ed58882610e78565b9750610ee083610e90565b925050600181019050610ec1565b5085935050505092915050565b60006020820190508181036000830152610f158184610e9d565b905092915050565b6000604051905090565b600080fd5b600080fd5b610f3a81610e5f565b8114610f4557600080fd5b50565b600081359050610f5781610f31565b92915050565b600060208284031215610f7357610f72610f27565b5b6000610f8184828501610f48565b91505092915050565b610f9381610e5f565b82525050565b600081519050919050565b600082825260208201905092915050565b60005b83811015610fd3578082015181840152602081019050610fb8565b60008484015250505050565b6000601f19601f8301169050919050565b6000610ffb82610f99565b6110058185610fa4565b9350611015818560208601610fb5565b61101e81610fdf565b840191505092915050565b60006101608201905061103f600083018e610f8a565b8181036020830152611051818d610ff0565b90508181036040830152611065818c610ff0565b90508181036060830152611079818b610ff0565b9050818103608083015261108d818a610ff0565b905081810360a08301526110a18189610ff0565b905081810360c08301526110b58188610ff0565b905081810360e08301526110c98187610ff0565b90508181036101008301526110de8186610ff0565b90508181036101208301526110f38185610ff0565b90508181036101408301526111088184610ff0565b90509c9b505050505050505050505050565b600080fd5b600080fd5b7f4e487b7100000000000000000000000000000000000000000000000000000000600052604160045260246000fd5b61115c82610fdf565b810181811067ffffffffffffffff8211171561117b5761117a611124565b5b80604052505050565b600061118e610f1d565b905061119a8282611153565b919050565b600067ffffffffffffffff8211156111ba576111b9611124565b5b6111c382610fdf565b9050602081019050919050565b82818337600083830152505050565b60006111f26111ed8461119f565b611184565b90508281526020810184848401111561120e5761120d61111f565b5b6112198482856111d0565b509392505050565b600082601f8301126112365761123561111a565b5b81356112468482602086016111df565b91505092915050565b60008060008060008060008060008060006101608c8e03121561127557611274610f27565b5b60006112838e828f01610f48565b9b505060208c013567ffffffffffffffff8111156112a4576112a3610f2c565b5b6112b08e828f01611221565b9a505060408c013567ffffffffffffffff8111156112d1576112d0610f2c565b5b6112dd8e828f01611221565b99505060608c013567ffffffffffffffff8111156112fe576112fd610f2c565b5b61130a8e828f01611221565b98505060808c013567ffffffffffffffff81111561132b5761132a610f2c565b5b6113378e828f01611221565b97505060a08c013567ffffffffffffffff81111561135857611357610f2c565b5b6113648e828f01611221565b96505060c08c013567ffffffffffffffff81111561138557611384610f2c565b5b6113918e828f01611221565b95505060e08c013567ffffffffffffffff8111156113b2576113b1610f2c565b5b6113be8e828f01611221565b9450506101008c013567ffffffffffffffff8111156113e0576113df610f2c565b5b6113ec8e828f01611221565b9350506101208c013567ffffffffffffffff81111561140e5761140d610f2c565b5b61141a8e828f01611221565b9250506101408c013567ffffffffffffffff81111561143c5761143b610f2c565b5b6114488e828f01611221565b9150509295989b509295989b9093969950565b600073ffffffffffffffffffffffffffffffffffffffff82169050919050565b60006114868261145b565b9050919050565b6114968161147b565b82525050565b60006020820190506114b1600083018461148d565b92915050565b60006060820190506114cc6000830186610f8a565b81810360208301526114de8185610ff0565b905081810360408301526114f28184610ff0565b9050949350505050565b600081519050919050565b600082825260208201905092915050565b6000819050602082019050919050565b600082825260208201905092915050565b600061154482610f99565b61154e8185611528565b935061155e818560208601610fb5565b61156781610fdf565b840191505092915050565b600061157e8383611539565b905092915050565b6000602082019050919050565b600061159e826114fc565b6115a88185611507565b9350836020820285016115ba85611518565b8060005b858110156115f657848403895281516115d78582611572565b94506115e283611586565b925060208a019950506001810190506115be565b50829750879550505050505092915050565b600060608201905081810360008301526116228186610e9d565b905081810360208301526116368185611593565b9050818103604083015261164a8184611593565b9050949350505050565b7f4e487b7100000000000000000000000000000000000000000000000000000000600052602260045260246000fd5b6000600282049050600182168061169b57607f821691505b6020821081036116ae576116ad611654565b5b50919050565b7f4368657175652077697468207468697320494420616c7265616479206578697360008201527f74732e0000000000000000000000000000000000000000000000000000000000602082015250565b6000611710602383610fa4565b915061171b826116b4565b604082019050919050565b6000602082019050818103600083015261173f81611703565b9050919050565b60008190508160005260206000209050919050565b60006020601f8301049050919050565b600082821b905092915050565b6000600883026117a87fffffffffffffffffffffffffffffffffffffffffffffffffffffffffffffffff8261176b565b6117b2868361176b565b95508019841693508086168417925050509392505050565b6000819050919050565b60006117ef6117ea6117e584610e5f565b6117ca565b610e5f565b9050919050565b6000819050919050565b611809836117d4565b61181d611815826117f6565b848454611778565b825550505050565b600090565b611832611825565b61183d818484611800565b505050565b5b818110156118615761185660008261182a565b600181019050611843565b5050565b601f8211156118a65761187781611746565b6118808461175b565b8101602085101561188f578190505b6118a361189b8561175b565b830182611842565b50505b505050565b600082821c905092915050565b60006118c9600019846008026118ab565b1980831691505092915050565b60006118e283836118b8565b9150826002028217905092915050565b6118fb82610f99565b67ffffffffffffffff81111561191457611913611124565b5b61191e8254611683565b611929828285611865565b600060209050601f83116001811461195c576000841561194a578287015190505b61195485826118d6565b8655506119bc565b601f19841661196a86611746565b60005b828110156119925784890151825560018201915060208501945060208101905061196d565b868310156119af57848901516119ab601f8916826118b8565b8355505b6001600288020188555050505b505050505050565b60006040820190506119d96000830185610f8a565b81810360208301526119eb8184610ff0565b90509392505050565b7f4368657175652077697468207468697320494420646f6573206e6f742065786960008201527f73742e0000000000000000000000000000000000000000000000000000000000602082015250565b6000611a50602383610fa4565b9150611a5b826119f4565b604082019050919050565b60006020820190508181036000830152611a7f81611a43565b9050919050565b7f4e487b7100000000000000000000000000000000000000000000000000000000600052603260045260246000fd5b7f4e487b7100000000000000000000000000000000000000000000000000000000600052601160045260246000fd5b6000611aef82610e5f565b91507fffffffffffffffffffffffffffffffffffffffffffffffffffffffffffffffff8203611b2157611b20611ab5565b5b60018201905091905056fea26469706673582212202d7f17dcb092bfc3605a3ba73c0e7eb33000bf3925db11cf2f11b894e4d0516b64736f6c63430008130033",
  "immutableReferences": {},
  "source": "// SPDX-License-Identifier: MIT\r\npragma solidity ^0.8.0;\r\n\r\ncontract ChequeMetadata {\r\n    struct Cheque {\r\n        uint id;\r\n        string payeeName;\r\n        string amountInNumber;\r\n        string amountInWords;\r\n        string bankName;\r\n        string branch;\r\n        string ifscCode;\r\n        string date;\r\n        string micrCode;\r\n        string accountNumber;\r\n        string chequeImageUrl; //  Image URL instead of just name\r\n    }\r\n\r\n    mapping(uint => Cheque) public cheques;\r\n    uint[] private chequeIds;\r\n    address public owner;\r\n\r\n    event ChequeStored(uint id, string chequeImageUrl);\r\n\r\n    constructor() {\r\n        owner = msg.sender;\r\n    }\r\n\r\n    function storeCheque(\r\n        uint id,\r\n        string memory payeeName,\r\n        string memory amountInNumber,\r\n        string memory amountInWords,\r\n        string memory bankName,\r\n        string memory branch,\r\n        string memory ifscCode,\r\n        string memory date,\r\n        string memory micrCode,\r\n        string memory accountNumber,\r\n        string memory chequeImageUrl //  Store full URL\r\n    ) public {\r\n        require(cheques[id].id == 0, \"Cheque with this ID already exists.\");\r\n        \r\n        cheques[id] = Cheque(\r\n            id,\r\n            payeeName,\r\n            amountInNumber,\r\n            amountInWords,\r\n            bankName,\r\n            branch,\r\n            ifscCode,\r\n            date,\r\n            micrCode,\r\n            accountNumber,\r\n            chequeImageUrl\r\n        );\r\n        \r\n        chequeIds.push(id);\r\n        emit ChequeStored(id, chequeImageUrl);\r\n    }\r\n\r\n    function getCheque(uint id) public view returns (uint, string memory, string memory) {\r\n        require(cheques[id].id != 0, \"Cheque with this ID does not exist.\");\r\n        return (cheques[id].id, cheques[id].date, cheques[id].chequeImageUrl);\r\n    }\r\n\r\n    function getChequeIds() public view returns (uint[] memory) {\r\n        return chequeIds;\r\n    }\r\n\r\n    function getAllCheques() public view returns (uint[] memory, string[] memory, string[] memory) {\r\n        uint length = chequeIds.length;\r\n        uint[] memory ids = new uint[](length);\r\n        string[] memory dates = new string[](length);\r\n        string[] memory chequeImageUrls = new string[](length);\r\n\r\n        for (uint i = 0; i < length; i++) {\r\n            uint chequeId = chequeIds[i];\r\n            ids[i] = chequeId;\r\n            dates[i] = cheques[chequeId].date;\r\n            chequeImageUrls[i] = cheques[chequeId].chequeImageUrl;\r\n        }\r\n\r\n        return (ids, dates, chequeImageUrls);\r\n    }\r\n}\r\n",
  "sourcePath": "C:\\Users\\HP\\Desktop\\blockchainCheque\\contracts\\ChequeMetadata.sol",
  "compiler": {
    "name": "solc",
    "version": "0.8.19+commit.7dd6d404.Emscripten.clang"
  },
  "schemaVersion": "3.4.16",
  "updatedAt": "2025-03-23T07:00:15.752Z",
  "networkType": "ethereum",
  "devdoc": {
    "kind": "dev",
    "methods": {},
    "version": 1
  },
  "userdoc": {
    "kind": "user",
    "methods": {},
    "version": 1
  }
}