{
  "contractName": "ChequeMetadatanew",
  "abi": [
    {
      "inputs": [],
      "stateMutability": "nonpayable",
      "type": "constructor"
    },
    {
      "anonymous": false,
      "inputs": [
        {
          "indexed": false,
          "internalType": "address",
          "name": "account",
          "type": "address"
        }
      ],
      "name": "AccountFlagged",
      "type": "event"
    },
    {
      "anonymous": false,
      "inputs": [
        {
          "indexed": false,
          "internalType": "address",
          "name": "account",
          "type": "address"
        }
      ],
      "name": "AccountRegistered",
      "type": "event"
    },
    {
      "anonymous": false,
      "inputs": [
        {
          "indexed": false,
          "internalType": "uint256",
          "name": "chequeNumber",
          "type": "uint256"
        },
        {
          "indexed": false,
          "internalType": "address",
          "name": "issuer",
          "type": "address"
        },
        {
          "indexed": false,
          "internalType": "bool",
          "name": "isValid",
          "type": "bool"
        },
        {
          "indexed": false,
          "internalType": "string",
          "name": "reason",
          "type": "string"
        }
      ],
      "name": "ChequeProcessed",
      "type": "event"
    },
    {
      "inputs": [
        {
          "internalType": "uint256",
          "name": "",
          "type": "uint256"
        }
      ],
      "name": "cheques",
      "outputs": [
        {
          "internalType": "uint256",
          "name": "chequeNumber",
          "type": "uint256"
        },
        {
          "internalType": "uint256",
          "name": "amount",
          "type": "uint256"
        },
        {
          "internalType": "uint256",
          "name": "issueDate",
          "type": "uint256"
        },
        {
          "internalType": "address",
          "name": "issuerAccount",
          "type": "address"
        },
        {
          "internalType": "bool",
          "name": "isProcessed",
          "type": "bool"
        }
      ],
      "stateMutability": "view",
      "type": "function",
      "constant": true
    },
    {
      "inputs": [
        {
          "internalType": "address",
          "name": "",
          "type": "address"
        }
      ],
      "name": "validAccounts",
      "outputs": [
        {
          "internalType": "bool",
          "name": "",
          "type": "bool"
        }
      ],
      "stateMutability": "view",
      "type": "function",
      "constant": true
    },
    {
      "inputs": [
        {
          "internalType": "address",
          "name": "_account",
          "type": "address"
        }
      ],
      "name": "registerAccount",
      "outputs": [],
      "stateMutability": "nonpayable",
      "type": "function"
    },
    {
      "inputs": [
        {
          "internalType": "address",
          "name": "_account",
          "type": "address"
        }
      ],
      "name": "flagAccount",
      "outputs": [],
      "stateMutability": "nonpayable",
      "type": "function"
    },
    {
      "inputs": [
        {
          "internalType": "uint256",
          "name": "_chequeNumber",
          "type": "uint256"
        },
        {
          "internalType": "uint256",
          "name": "_amount",
          "type": "uint256"
        },
        {
          "internalType": "uint256",
          "name": "_issueDate",
          "type": "uint256"
        },
        {
          "internalType": "address",
          "name": "_issuer",
          "type": "address"
        }
      ],
      "name": "processCheque",
      "outputs": [],
      "stateMutability": "nonpayable",
      "type": "function"
    },
    {
      "inputs": [
        {
          "internalType": "uint256",
          "name": "_chequeNumber",
          "type": "uint256"
        }
      ],
      "name": "getCheque",
      "outputs": [
        {
          "components": [
            {
              "internalType": "uint256",
              "name": "chequeNumber",
              "type": "uint256"
            },
            {
              "internalType": "uint256",
              "name": "amount",
              "type": "uint256"
            },
            {
              "internalType": "uint256",
              "name": "issueDate",
              "type": "uint256"
            },
            {
              "internalType": "address",
              "name": "issuerAccount",
              "type": "address"
            },
            {
              "internalType": "bool",
              "name": "isProcessed",
              "type": "bool"
            }
          ],
          "internalType": "struct ChequeMetadatanew.Cheque",
          "name": "",
          "type": "tuple"
        }
      ],
      "stateMutability": "view",
      "type": "function",
      "constant": true
    }
  ],
  "bytecode": "0x608060405234801561001057600080fd5b5060018060003373ffffffffffffffffffffffffffffffffffffffff1673ffffffffffffffffffffffffffffffffffffffff16815260200190815260200160002060006101000a81548160ff0219169083151502179055507fcd822dc9688e20acea68724a2fbcfe4f3e526d20ecaa37b18fe3047ab377d6a53360405161009791906100e5565b60405180910390a1610100565b600073ffffffffffffffffffffffffffffffffffffffff82169050919050565b60006100cf826100a4565b9050919050565b6100df816100c4565b82525050565b60006020820190506100fa60008301846100d6565b92915050565b610cfd8061010f6000396000f3fe608060405234801561001057600080fd5b50600436106100625760003560e01c806351208fe41461006757806363819bba1461009b5780637fc42615146100b757806397c414df146100d3578063a6ce683c146100ef578063e35a602c1461011f575b600080fd5b610081600480360381019061007c9190610723565b61014f565b6040516100929594939291906107bb565b60405180910390f35b6100b560048036038101906100b0919061083a565b6101b2565b005b6100d160048036038101906100cc91906108a1565b6104a3565b005b6100ed60048036038101906100e891906108a1565b610535565b005b61010960048036038101906101049190610723565b6105c6565b6040516101169190610963565b60405180910390f35b610139600480360381019061013491906108a1565b610681565b604051610146919061097e565b60405180910390f35b60006020528060005260406000206000915090508060000154908060010154908060020154908060030160009054906101000a900473ffffffffffffffffffffffffffffffffffffffff16908060030160149054906101000a900460ff16905085565b80600160008273ffffffffffffffffffffffffffffffffffffffff1673ffffffffffffffffffffffffffffffffffffffff16815260200190815260200160002060009054906101000a900460ff1661023f576040517f08c379a0000000000000000000000000000000000000000000000000000000008152600401610236906109f6565b60405180910390fd5b60008411610282576040517f08c379a000000000000000000000000000000000000000000000000000000000815260040161027990610a62565b60405180910390fd5b620186a0851015801561029a57506402540be3ff8511155b6102d9576040517f08c379a00000000000000000000000000000000000000000000000000000000081526004016102d090610ace565b60405180910390fd5b4283111561031c576040517f08c379a000000000000000000000000000000000000000000000000000000000815260040161031390610b60565b60405180910390fd5b60008086815260200190815260200160002060030160149054906101000a900460ff1615610385577f271d9ac527624424ad9bb997867815f7381acea51c86abce83ad95aa27114edc8583600060405161037893929190610bcc565b60405180910390a161049c565b6040518060a001604052808681526020018581526020018481526020018373ffffffffffffffffffffffffffffffffffffffff1681526020016001151581525060008087815260200190815260200160002060008201518160000155602082015181600101556040820151816002015560608201518160030160006101000a81548173ffffffffffffffffffffffffffffffffffffffff021916908373ffffffffffffffffffffffffffffffffffffffff16021790555060808201518160030160146101000a81548160ff0219169083151502179055509050507f271d9ac527624424ad9bb997867815f7381acea51c86abce83ad95aa27114edc8583600160405161049393929190610c62565b60405180910390a15b5050505050565b6000600160008373ffffffffffffffffffffffffffffffffffffffff1673ffffffffffffffffffffffffffffffffffffffff16815260200190815260200160002060006101000a81548160ff0219169083151502179055507f5adc182dc620e2dbbf9f1f3b4d327fccd76cda0d591f9631f15e50326e9e8e728160405161052a9190610cac565b60405180910390a150565b60018060008373ffffffffffffffffffffffffffffffffffffffff1673ffffffffffffffffffffffffffffffffffffffff16815260200190815260200160002060006101000a81548160ff0219169083151502179055507fcd822dc9688e20acea68724a2fbcfe4f3e526d20ecaa37b18fe3047ab377d6a5816040516105bb9190610cac565b60405180910390a150565b6105ce6106a1565b6000808381526020019081526020016000206040518060a00160405290816000820154815260200160018201548152602001600282015481526020016003820160009054906101000a900473ffffffffffffffffffffffffffffffffffffffff1673ffffffffffffffffffffffffffffffffffffffff1673ffffffffffffffffffffffffffffffffffffffff1681526020016003820160149054906101000a900460ff1615151515815250509050919050565b60016020528060005260406000206000915054906101000a900460ff1681565b6040518060a00160405280600081526020016000815260200160008152602001600073ffffffffffffffffffffffffffffffffffffffff1681526020016000151581525090565b600080fd5b6000819050919050565b610700816106ed565b811461070b57600080fd5b50565b60008135905061071d816106f7565b92915050565b600060208284031215610739576107386106e8565b5b60006107478482850161070e565b91505092915050565b610759816106ed565b82525050565b600073ffffffffffffffffffffffffffffffffffffffff82169050919050565b600061078a8261075f565b9050919050565b61079a8161077f565b82525050565b60008115159050919050565b6107b5816107a0565b82525050565b600060a0820190506107d06000830188610750565b6107dd6020830187610750565b6107ea6040830186610750565b6107f76060830185610791565b61080460808301846107ac565b9695505050505050565b6108178161077f565b811461082257600080fd5b50565b6000813590506108348161080e565b92915050565b60008060008060808587031215610854576108536106e8565b5b60006108628782880161070e565b94505060206108738782880161070e565b93505060406108848782880161070e565b925050606061089587828801610825565b91505092959194509250565b6000602082840312156108b7576108b66106e8565b5b60006108c584828501610825565b91505092915050565b6108d7816106ed565b82525050565b6108e68161077f565b82525050565b6108f5816107a0565b82525050565b60a08201600082015161091160008501826108ce565b50602082015161092460208501826108ce565b50604082015161093760408501826108ce565b50606082015161094a60608501826108dd565b50608082015161095d60808501826108ec565b50505050565b600060a08201905061097860008301846108fb565b92915050565b600060208201905061099360008301846107ac565b92915050565b600082825260208201905092915050565b7f497373756572206163636f756e74206973206e6f742076616c69640000000000600082015250565b60006109e0601b83610999565b91506109eb826109aa565b602082019050919050565b60006020820190508181036000830152610a0f816109d3565b9050919050565b7f416d6f756e74206d7573742062652067726561746572207468616e207a65726f600082015250565b6000610a4c602083610999565b9150610a5782610a16565b602082019050919050565b60006020820190508181036000830152610a7b81610a3f565b9050919050565b7f496e76616c696420636865717565206e756d626572206c656e67746800000000600082015250565b6000610ab8601c83610999565b9150610ac382610a82565b602082019050919050565b60006020820190508181036000830152610ae781610aab565b9050919050565b7f496e76616c696420697373756520646174653a2046757475726520646174652060008201527f6973206e6f7420616c6c6f776564000000000000000000000000000000000000602082015250565b6000610b4a602e83610999565b9150610b5582610aee565b604082019050919050565b60006020820190508181036000830152610b7981610b3d565b9050919050565b7f4475706c69636174652063686571756520646574656374656400000000000000600082015250565b6000610bb6601983610999565b9150610bc182610b80565b602082019050919050565b6000608082019050610be16000830186610750565b610bee6020830185610791565b610bfb60408301846107ac565b8181036060830152610c0c81610ba9565b9050949350505050565b7f436865717565207375636365737366756c6c792070726f636573736564000000600082015250565b6000610c4c601d83610999565b9150610c5782610c16565b602082019050919050565b6000608082019050610c776000830186610750565b610c846020830185610791565b610c9160408301846107ac565b8181036060830152610ca281610c3f565b9050949350505050565b6000602082019050610cc16000830184610791565b9291505056fea26469706673582212203cf5865b9deb3c59fb9457d96e68a2008c2a44185c14cd8513d32b633b58c7e164736f6c63430008130033",
  "immutableReferences": {},
  "source": "// SPDX-License-Identifier: MIT\r\npragma solidity ^0.8.19;\r\n\r\ncontract ChequeMetadatanew {\r\n    struct Cheque {\r\n        uint256 chequeNumber;\r\n        uint256 amount;\r\n        uint256 issueDate;\r\n        address issuerAccount;\r\n        bool isProcessed;\r\n    }\r\n\r\n    mapping(uint256 => Cheque) public cheques;\r\n    mapping(address => bool) public validAccounts;\r\n\r\n    event ChequeProcessed(uint256 chequeNumber, address issuer, bool isValid, string reason);\r\n    event AccountRegistered(address account);\r\n    event AccountFlagged(address account);\r\n\r\n    constructor() {\r\n        // Initialize validAccounts mapping for at least one account (to prevent invalid opcode)\r\n        validAccounts[msg.sender] = true;\r\n        emit AccountRegistered(msg.sender);\r\n    }\r\n\r\n    modifier onlyValidAccount(address _issuer) {\r\n        require(validAccounts[_issuer], \"Issuer account is not valid\");\r\n        _;\r\n    }\r\n\r\n    function registerAccount(address _account) external {\r\n        validAccounts[_account] = true;\r\n        emit AccountRegistered(_account);\r\n    }\r\n\r\n    function flagAccount(address _account) external {\r\n        validAccounts[_account] = false;\r\n        emit AccountFlagged(_account);\r\n    }\r\n\r\n    function processCheque(\r\n        uint256 _chequeNumber,\r\n        uint256 _amount,\r\n        uint256 _issueDate,\r\n        address _issuer\r\n    ) external onlyValidAccount(_issuer) {\r\n        require(_amount > 0, \"Amount must be greater than zero\");\r\n\r\n        // Validate cheque number length (6 to 10 digits)\r\n        require(_chequeNumber >= 100000 && _chequeNumber <= 9999999999, \"Invalid cheque number length\");\r\n\r\n        // Validate date: Issue date must be in the past or today\r\n        require(_issueDate <= block.timestamp, \"Invalid issue date: Future date is not allowed\");\r\n\r\n    \r\n\r\n        // Check for duplicate cheque\r\n        if (cheques[_chequeNumber].isProcessed) {\r\n            emit ChequeProcessed(_chequeNumber, _issuer, false, \"Duplicate cheque detected\");\r\n            return;\r\n        }\r\n\r\n        // Store cheque details\r\n        cheques[_chequeNumber] = Cheque(_chequeNumber, _amount, _issueDate, _issuer, true);\r\n        emit ChequeProcessed(_chequeNumber, _issuer, true, \"Cheque successfully processed\");\r\n    }\r\n\r\n    function getCheque(uint256 _chequeNumber) external view returns (Cheque memory) {\r\n        return cheques[_chequeNumber];\r\n    }\r\n}\r\n",
  "sourcePath": "C:\\Users\\HP\\Desktop\\blockchainCheque\\contracts\\ChequeMetadatanew.sol",
  "compiler": {
    "name": "solc",
    "version": "0.8.19+commit.7dd6d404.Emscripten.clang"
  },
  "schemaVersion": "3.4.16",
  "updatedAt": "2025-03-23T07:00:15.786Z",
  "networkType": "ethereum",
  "devdoc": {
    "kind": "dev",
    "methods": {},
    "version": 1
  },
  "userdoc": {
    "kind": "user",
    "methods": {},
    "version": 1
  }
}