{
  "contractName": "ModelCIDStorage",
  "abi": [
    {
      "anonymous": false,
      "inputs": [
        {
          "indexed": true,
          "internalType": "address",
          "name": "user",
          "type": "address"
        },
        {
          "indexed": false,
          "internalType": "string",
          "name": "cid",
          "type": "string"
        }
      ],
      "name": "CIDStored",
      "type": "event"
    },
    {
      "inputs": [
        {
          "internalType": "address",
          "name": "",
          "type": "address"
        }
      ],
      "name": "modelCIDs",
      "outputs": [
        {
          "internalType": "string",
          "name": "",
          "type": "string"
        }
      ],
      "stateMutability": "view",
      "type": "function",
      "constant": true
    },
    {
      "inputs": [
        {
          "internalType": "string",
          "name": "_cid",
          "type": "string"
        }
      ],
      "name": "storeCID",
      "outputs": [],
      "stateMutability": "nonpayable",
      "type": "function"
    },
    {
      "inputs": [
        {
          "internalType": "address",
          "name": "user",
          "type": "address"
        }
      ],
      "name": "getCID",
      "outputs": [
        {
          "internalType": "string",
          "name": "",
          "type": "string"
        }
      ],
      "stateMutability": "view",
      "type": "function",
      "constant": true
    }
  ],
  "bytecode": "0x608060405234801561001057600080fd5b506108bc806100206000396000f3fe608060405234801561001057600080fd5b50600436106100415760003560e01c8063055b33e7146100465780635438f63d14610076578063ccfdd32b146100a6575b600080fd5b610060600480360381019061005b9190610341565b6100c2565b60405161006d91906103fe565b60405180910390f35b610090600480360381019061008b9190610341565b610192565b60405161009d91906103fe565b60405180910390f35b6100c060048036038101906100bb9190610555565b610232565b005b60606000808373ffffffffffffffffffffffffffffffffffffffff1673ffffffffffffffffffffffffffffffffffffffff168152602001908152602001600020805461010d906105cd565b80601f0160208091040260200160405190810160405280929190818152602001828054610139906105cd565b80156101865780601f1061015b57610100808354040283529160200191610186565b820191906000526020600020905b81548152906001019060200180831161016957829003601f168201915b50505050509050919050565b600060205280600052604060002060009150905080546101b1906105cd565b80601f01602080910402602001604051908101604052809291908181526020018280546101dd906105cd565b801561022a5780601f106101ff5761010080835404028352916020019161022a565b820191906000526020600020905b81548152906001019060200180831161020d57829003601f168201915b505050505081565b806000803373ffffffffffffffffffffffffffffffffffffffff1673ffffffffffffffffffffffffffffffffffffffff168152602001908152602001600020908161027d91906107b4565b503373ffffffffffffffffffffffffffffffffffffffff167fd8a0edc6ade10e42d7ab691902b8c1a635fabe45ace3609fc4fbfad7e424e427826040516102c491906103fe565b60405180910390a250565b6000604051905090565b600080fd5b600080fd5b600073ffffffffffffffffffffffffffffffffffffffff82169050919050565b600061030e826102e3565b9050919050565b61031e81610303565b811461032957600080fd5b50565b60008135905061033b81610315565b92915050565b600060208284031215610357576103566102d9565b5b60006103658482850161032c565b91505092915050565b600081519050919050565b600082825260208201905092915050565b60005b838110156103a857808201518184015260208101905061038d565b60008484015250505050565b6000601f19601f8301169050919050565b60006103d08261036e565b6103da8185610379565b93506103ea81856020860161038a565b6103f3816103b4565b840191505092915050565b6000602082019050818103600083015261041881846103c5565b905092915050565b600080fd5b600080fd5b7f4e487b7100000000000000000000000000000000000000000000000000000000600052604160045260246000fd5b610462826103b4565b810181811067ffffffffffffffff821117156104815761048061042a565b5b80604052505050565b60006104946102cf565b90506104a08282610459565b919050565b600067ffffffffffffffff8211156104c0576104bf61042a565b5b6104c9826103b4565b9050602081019050919050565b82818337600083830152505050565b60006104f86104f3846104a5565b61048a565b90508281526020810184848401111561051457610513610425565b5b61051f8482856104d6565b509392505050565b600082601f83011261053c5761053b610420565b5b813561054c8482602086016104e5565b91505092915050565b60006020828403121561056b5761056a6102d9565b5b600082013567ffffffffffffffff811115610589576105886102de565b5b61059584828501610527565b91505092915050565b7f4e487b7100000000000000000000000000000000000000000000000000000000600052602260045260246000fd5b600060028204905060018216806105e557607f821691505b6020821081036105f8576105f761059e565b5b50919050565b60008190508160005260206000209050919050565b60006020601f8301049050919050565b600082821b905092915050565b6000600883026106607fffffffffffffffffffffffffffffffffffffffffffffffffffffffffffffffff82610623565b61066a8683610623565b95508019841693508086168417925050509392505050565b6000819050919050565b6000819050919050565b60006106b16106ac6106a784610682565b61068c565b610682565b9050919050565b6000819050919050565b6106cb83610696565b6106df6106d7826106b8565b848454610630565b825550505050565b600090565b6106f46106e7565b6106ff8184846106c2565b505050565b5b81811015610723576107186000826106ec565b600181019050610705565b5050565b601f82111561076857610739816105fe565b61074284610613565b81016020851015610751578190505b61076561075d85610613565b830182610704565b50505b505050565b600082821c905092915050565b600061078b6000198460080261076d565b1980831691505092915050565b60006107a4838361077a565b9150826002028217905092915050565b6107bd8261036e565b67ffffffffffffffff8111156107d6576107d561042a565b5b6107e082546105cd565b6107eb828285610727565b600060209050601f83116001811461081e576000841561080c578287015190505b6108168582610798565b86555061087e565b601f19841661082c866105fe565b60005b828110156108545784890151825560018201915060208501945060208101905061082f565b86831015610871578489015161086d601f89168261077a565b8355505b6001600288020188555050505b50505050505056fea26469706673582212205b67c4d7fe95b1daaf328e6fc6fd7f28629e14040fba31479591be2521ca7bad64736f6c63430008130033",
  "immutableReferences": {},
  "source": "// SPDX-License-Identifier: MIT\r\npragma solidity ^0.8.0;\r\n\r\ncontract ModelCIDStorage {\r\n    mapping(address => string) public modelCIDs;\r\n\r\n    event CIDStored(address indexed user, string cid);\r\n\r\n    function storeCID(string memory _cid) public {\r\n        modelCIDs[msg.sender] = _cid;\r\n        emit CIDStored(msg.sender, _cid);\r\n    }\r\n\r\n    function getCID(address user) public view returns (string memory) {\r\n        return modelCIDs[user];\r\n    }\r\n}\r\n",
  "sourcePath": "C:\\Users\\HP\\Desktop\\blockchainCheque\\contracts\\ModelCIDStorage.sol",
  "compiler": {
    "name": "solc",
    "version": "0.8.19+commit.7dd6d404.Emscripten.clang"
  },
  "schemaVersion": "3.4.16",
  "updatedAt": "2025-03-23T07:00:15.764Z",
  "networkType": "ethereum",
  "devdoc": {
    "kind": "dev",
    "methods": {},
    "version": 1
  },
  "userdoc": {
    "kind": "user",
    "methods": {},
    "version": 1
  }
}