{
  "contractName": "SignatureRegistry",
  "abi": [
    {
      "inputs": [
        {
          "internalType": "uint256",
          "name": "",
          "type": "uint256"
        }
      ],
      "name": "personAddresses",
      "outputs": [
        {
          "internalType": "address",
          "name": "",
          "type": "address"
        }
      ],
      "stateMutability": "view",
      "type": "function",
      "constant": true
    },
    {
      "inputs": [
        {
          "internalType": "address",
          "name": "",
          "type": "address"
        }
      ],
      "name": "persons",
      "outputs": [
        {
          "internalType": "string",
          "name": "name",
          "type": "string"
        },
        {
          "internalType": "string",
          "name": "ipfsHash",
          "type": "string"
        }
      ],
      "stateMutability": "view",
      "type": "function",
      "constant": true
    },
    {
      "inputs": [
        {
          "internalType": "string",
          "name": "_name",
          "type": "string"
        },
        {
          "internalType": "string",
          "name": "_ipfsHash",
          "type": "string"
        }
      ],
      "name": "addPerson",
      "outputs": [],
      "stateMutability": "nonpayable",
      "type": "function"
    },
    {
      "inputs": [
        {
          "internalType": "address",
          "name": "_person",
          "type": "address"
        }
      ],
      "name": "getPerson",
      "outputs": [
        {
          "internalType": "string",
          "name": "",
          "type": "string"
        },
        {
          "internalType": "string",
          "name": "",
          "type": "string"
        }
      ],
      "stateMutability": "view",
      "type": "function",
      "constant": true
    },
    {
      "inputs": [],
      "name": "getAllPersons",
      "outputs": [
        {
          "internalType": "address[]",
          "name": "",
          "type": "address[]"
        },
        {
          "internalType": "string[]",
          "name": "",
          "type": "string[]"
        },
        {
          "internalType": "string[]",
          "name": "",
          "type": "string[]"
        }
      ],
      "stateMutability": "view",
      "type": "function",
      "constant": true
    }
  ],
  "bytecode": "0x608060405234801561001057600080fd5b5061121c806100206000396000f3fe608060405234801561001057600080fd5b50600436106100575760003560e01c806322f5b58d1461005c578063552d2d5c146100785780637fa4ba87146100a95780638ada2cf6146100c9578063b83ce111146100fa575b600080fd5b61007660048036038101906100719190610a06565b61012a565b005b610092600480360381019061008d9190610adc565b610213565b6040516100a0929190610b88565b60405180910390f35b6100b16103b9565b6040516100c093929190610d89565b60405180910390f35b6100e360048036038101906100de9190610adc565b610739565b6040516100f1929190610b88565b60405180910390f35b610114600480360381019061010f9190610e0b565b61086d565b6040516101219190610e47565b60405180910390f35b6040518060400160405280838152602001828152506000803373ffffffffffffffffffffffffffffffffffffffff1673ffffffffffffffffffffffffffffffffffffffff1681526020019081526020016000206000820151816000019081610192919061106e565b5060208201518160010190816101a8919061106e565b509050506001339080600181540180825580915050600190039060005260206000200160009091909190916101000a81548173ffffffffffffffffffffffffffffffffffffffff021916908373ffffffffffffffffffffffffffffffffffffffff1602179055505050565b6060806000808473ffffffffffffffffffffffffffffffffffffffff1673ffffffffffffffffffffffffffffffffffffffff1681526020019081526020016000206000016000808573ffffffffffffffffffffffffffffffffffffffff1673ffffffffffffffffffffffffffffffffffffffff1681526020019081526020016000206001018180546102a490610e91565b80601f01602080910402602001604051908101604052809291908181526020018280546102d090610e91565b801561031d5780601f106102f25761010080835404028352916020019161031d565b820191906000526020600020905b81548152906001019060200180831161030057829003601f168201915b5050505050915080805461033090610e91565b80601f016020809104026020016040519081016040528092919081815260200182805461035c90610e91565b80156103a95780601f1061037e576101008083540402835291602001916103a9565b820191906000526020600020905b81548152906001019060200180831161038c57829003601f168201915b5050505050905091509150915091565b60608060606000600180549050905060008167ffffffffffffffff8111156103e4576103e36108db565b5b60405190808252806020026020018201604052801561041757816020015b60608152602001906001900390816104025790505b50905060008267ffffffffffffffff811115610436576104356108db565b5b60405190808252806020026020018201604052801561046957816020015b60608152602001906001900390816104545790505b50905060005b8381101561069e5760006001828154811061048d5761048c611140565b5b9060005260206000200160009054906101000a900473ffffffffffffffffffffffffffffffffffffffff1690506000808273ffffffffffffffffffffffffffffffffffffffff1673ffffffffffffffffffffffffffffffffffffffff168152602001908152602001600020600001805461050690610e91565b80601f016020809104026020016040519081016040528092919081815260200182805461053290610e91565b801561057f5780601f106105545761010080835404028352916020019161057f565b820191906000526020600020905b81548152906001019060200180831161056257829003601f168201915b505050505084838151811061059757610596611140565b5b60200260200101819052506000808273ffffffffffffffffffffffffffffffffffffffff1673ffffffffffffffffffffffffffffffffffffffff16815260200190815260200160002060010180546105ee90610e91565b80601f016020809104026020016040519081016040528092919081815260200182805461061a90610e91565b80156106675780601f1061063c57610100808354040283529160200191610667565b820191906000526020600020905b81548152906001019060200180831161064a57829003601f168201915b505050505083838151811061067f5761067e611140565b5b60200260200101819052505080806106969061119e565b91505061046f565b50600182828280548060200260200160405190810160405280929190818152602001828054801561072457602002820191906000526020600020905b8160009054906101000a900473ffffffffffffffffffffffffffffffffffffffff1673ffffffffffffffffffffffffffffffffffffffff16815260200190600101908083116106da575b50505050509250955095509550505050909192565b600060205280600052604060002060009150905080600001805461075c90610e91565b80601f016020809104026020016040519081016040528092919081815260200182805461078890610e91565b80156107d55780601f106107aa576101008083540402835291602001916107d5565b820191906000526020600020905b8154815290600101906020018083116107b857829003601f168201915b5050505050908060010180546107ea90610e91565b80601f016020809104026020016040519081016040528092919081815260200182805461081690610e91565b80156108635780601f1061083857610100808354040283529160200191610863565b820191906000526020600020905b81548152906001019060200180831161084657829003601f168201915b5050505050905082565b6001818154811061087d57600080fd5b906000526020600020016000915054906101000a900473ffffffffffffffffffffffffffffffffffffffff1681565b6000604051905090565b600080fd5b600080fd5b600080fd5b600080fd5b6000601f19601f8301169050919050565b7f4e487b7100000000000000000000000000000000000000000000000000000000600052604160045260246000fd5b610913826108ca565b810181811067ffffffffffffffff82111715610932576109316108db565b5b80604052505050565b60006109456108ac565b9050610951828261090a565b919050565b600067ffffffffffffffff821115610971576109706108db565b5b61097a826108ca565b9050602081019050919050565b82818337600083830152505050565b60006109a96109a484610956565b61093b565b9050828152602081018484840111156109c5576109c46108c5565b5b6109d0848285610987565b509392505050565b600082601f8301126109ed576109ec6108c0565b5b81356109fd848260208601610996565b91505092915050565b60008060408385031215610a1d57610a1c6108b6565b5b600083013567ffffffffffffffff811115610a3b57610a3a6108bb565b5b610a47858286016109d8565b925050602083013567ffffffffffffffff811115610a6857610a676108bb565b5b610a74858286016109d8565b9150509250929050565b600073ffffffffffffffffffffffffffffffffffffffff82169050919050565b6000610aa982610a7e565b9050919050565b610ab981610a9e565b8114610ac457600080fd5b50565b600081359050610ad681610ab0565b92915050565b600060208284031215610af257610af16108b6565b5b6000610b0084828501610ac7565b91505092915050565b600081519050919050565b600082825260208201905092915050565b60005b83811015610b43578082015181840152602081019050610b28565b60008484015250505050565b6000610b5a82610b09565b610b648185610b14565b9350610b74818560208601610b25565b610b7d816108ca565b840191505092915050565b60006040820190508181036000830152610ba28185610b4f565b90508181036020830152610bb68184610b4f565b90509392505050565b600081519050919050565b600082825260208201905092915050565b6000819050602082019050919050565b610bf481610a9e565b82525050565b6000610c068383610beb565b60208301905092915050565b6000602082019050919050565b6000610c2a82610bbf565b610c348185610bca565b9350610c3f83610bdb565b8060005b83811015610c70578151610c578882610bfa565b9750610c6283610c12565b925050600181019050610c43565b5085935050505092915050565b600081519050919050565b600082825260208201905092915050565b6000819050602082019050919050565b600082825260208201905092915050565b6000610cc582610b09565b610ccf8185610ca9565b9350610cdf818560208601610b25565b610ce8816108ca565b840191505092915050565b6000610cff8383610cba565b905092915050565b6000602082019050919050565b6000610d1f82610c7d565b610d298185610c88565b935083602082028501610d3b85610c99565b8060005b85811015610d775784840389528151610d588582610cf3565b9450610d6383610d07565b925060208a01995050600181019050610d3f565b50829750879550505050505092915050565b60006060820190508181036000830152610da38186610c1f565b90508181036020830152610db78185610d14565b90508181036040830152610dcb8184610d14565b9050949350505050565b6000819050919050565b610de881610dd5565b8114610df357600080fd5b50565b600081359050610e0581610ddf565b92915050565b600060208284031215610e2157610e206108b6565b5b6000610e2f84828501610df6565b91505092915050565b610e4181610a9e565b82525050565b6000602082019050610e5c6000830184610e38565b92915050565b7f4e487b7100000000000000000000000000000000000000000000000000000000600052602260045260246000fd5b60006002820490506001821680610ea957607f821691505b602082108103610ebc57610ebb610e62565b5b50919050565b60008190508160005260206000209050919050565b60006020601f8301049050919050565b600082821b905092915050565b600060088302610f247fffffffffffffffffffffffffffffffffffffffffffffffffffffffffffffffff82610ee7565b610f2e8683610ee7565b95508019841693508086168417925050509392505050565b6000819050919050565b6000610f6b610f66610f6184610dd5565b610f46565b610dd5565b9050919050565b6000819050919050565b610f8583610f50565b610f99610f9182610f72565b848454610ef4565b825550505050565b600090565b610fae610fa1565b610fb9818484610f7c565b505050565b5b81811015610fdd57610fd2600082610fa6565b600181019050610fbf565b5050565b601f82111561102257610ff381610ec2565b610ffc84610ed7565b8101602085101561100b578190505b61101f61101785610ed7565b830182610fbe565b50505b505050565b600082821c905092915050565b600061104560001984600802611027565b1980831691505092915050565b600061105e8383611034565b9150826002028217905092915050565b61107782610b09565b67ffffffffffffffff8111156110905761108f6108db565b5b61109a8254610e91565b6110a5828285610fe1565b600060209050601f8311600181146110d857600084156110c6578287015190505b6110d08582611052565b865550611138565b601f1984166110e686610ec2565b60005b8281101561110e578489015182556001820191506020850194506020810190506110e9565b8683101561112b5784890151611127601f891682611034565b8355505b6001600288020188555050505b505050505050565b7f4e487b7100000000000000000000000000000000000000000000000000000000600052603260045260246000fd5b7f4e487b7100000000000000000000000000000000000000000000000000000000600052601160045260246000fd5b60006111a982610dd5565b91507fffffffffffffffffffffffffffffffffffffffffffffffffffffffffffffffff82036111db576111da61116f565b5b60018201905091905056fea2646970667358221220ca57e99e28966b24111d6659e546c5caeb9cc0154a112b92fa2bd629746f538e64736f6c63430008130033",
  "immutableReferences": {},
  "source": "// SPDX-License-Identifier: MIT\r\npragma solidity ^0.8.0;\r\n\r\ncontract SignatureRegistry {\r\n    struct Person {\r\n        string name;\r\n        string ipfsHash;\r\n    }\r\n\r\n    mapping(address => Person) public persons;\r\n    address[] public personAddresses; // New array to track addresses\r\n\r\n    function addPerson(string memory _name, string memory _ipfsHash) public {\r\n        persons[msg.sender] = Person(_name, _ipfsHash);\r\n        personAddresses.push(msg.sender);  // Track new addresses\r\n    }\r\n\r\n    function getPerson(address _person) public view returns (string memory, string memory) {\r\n        return (persons[_person].name, persons[_person].ipfsHash);\r\n    }\r\n\r\n    // New function to fetch all persons' data\r\n    function getAllPersons() public view returns (address[] memory, string[] memory, string[] memory) {\r\n        uint totalPersons = personAddresses.length;\r\n        string[] memory names = new string[](totalPersons);\r\n        string[] memory ipfsHashes = new string[](totalPersons);\r\n\r\n        for (uint i = 0; i < totalPersons; i++) {\r\n            address currentAddress = personAddresses[i];\r\n            names[i] = persons[currentAddress].name;\r\n            ipfsHashes[i] = persons[currentAddress].ipfsHash;\r\n        }\r\n\r\n        return (personAddresses, names, ipfsHashes);\r\n    }\r\n}\r\n",
  "sourcePath": "C:\\Users\\HP\\Desktop\\blockchainCheque\\contracts\\SignatureRegistry.sol",
  "compiler": {
    "name": "solc",
    "version": "0.8.19+commit.7dd6d404.Emscripten.clang"
  },
  "schemaVersion": "3.4.16",
  "updatedAt": "2025-03-23T07:00:15.773Z",
  "networkType": "ethereum",
  "devdoc": {
    "kind": "dev",
    "methods": {},
    "version": 1
  },
  "userdoc": {
    "kind": "user",
    "methods": {},
    "version": 1
  }
}